###############################################################################
#
# IAR ELF Linker V9.10.1.308/W64 for ARM                  10/Nov/2021  18:38:31
# Copyright 2007-2021 IAR Systems AB.
#
#    Output file  =
#        C:\Users\adino\OneDrive\Documents\GitHub\LifeCuff2_Release\LifeCuff_V2_BootloaderIAR\EWARM\LifeCuff_V2_Bootloader\Exe\LifeCuff_V2_Bootloader.out
#    Map file     =
#        C:\Users\adino\OneDrive\Documents\GitHub\LifeCuff2_Release\LifeCuff_V2_BootloaderIAR\EWARM\LifeCuff_V2_Bootloader\List\LifeCuff_V2_Bootloader.map
#    Command line =
#        -f
#        C:\Users\adino\OneDrive\Documents\GitHub\LifeCuff2_Release\LifeCuff_V2_BootloaderIAR\EWARM\LifeCuff_V2_Bootloader\List\LifeCuff_V2_Bootloader.map.rsp
#        (C:\Users\adino\OneDrive\Documents\GitHub\LifeCuff2_Release\LifeCuff_V2_BootloaderIAR\EWARM\LifeCuff_V2_Bootloader\Obj\LifeCuff_Drivers\BootloaderCommands.o
#        C:\Users\adino\OneDrive\Documents\GitHub\LifeCuff2_Release\LifeCuff_V2_BootloaderIAR\EWARM\LifeCuff_V2_Bootloader\Obj\LifeCuff_Drivers\Crc32.o
#        C:\Users\adino\OneDrive\Documents\GitHub\LifeCuff2_Release\LifeCuff_V2_BootloaderIAR\EWARM\LifeCuff_V2_Bootloader\Obj\LifeCuff_Drivers\DriverUtilities.o
#        C:\Users\adino\OneDrive\Documents\GitHub\LifeCuff2_Release\LifeCuff_V2_BootloaderIAR\EWARM\LifeCuff_V2_Bootloader\Obj\LifeCuff_Drivers\GpioDriver.o
#        C:\Users\adino\OneDrive\Documents\GitHub\LifeCuff2_Release\LifeCuff_V2_BootloaderIAR\EWARM\LifeCuff_V2_Bootloader\Obj\LifeCuff_Drivers\LcdDriver.o
#        C:\Users\adino\OneDrive\Documents\GitHub\LifeCuff2_Release\LifeCuff_V2_BootloaderIAR\EWARM\LifeCuff_V2_Bootloader\Obj\Application\User\main.o
#        C:\Users\adino\OneDrive\Documents\GitHub\LifeCuff2_Release\LifeCuff_V2_BootloaderIAR\EWARM\LifeCuff_V2_Bootloader\Obj\Application\EWARM\startup_stm32f722xx.o
#        C:\Users\adino\OneDrive\Documents\GitHub\LifeCuff2_Release\LifeCuff_V2_BootloaderIAR\EWARM\LifeCuff_V2_Bootloader\Obj\Drivers\STM32F7xx_HAL_Driver\stm32f7xx_hal.o
#        C:\Users\adino\OneDrive\Documents\GitHub\LifeCuff2_Release\LifeCuff_V2_BootloaderIAR\EWARM\LifeCuff_V2_Bootloader\Obj\Drivers\STM32F7xx_HAL_Driver\stm32f7xx_hal_adc.o
#        C:\Users\adino\OneDrive\Documents\GitHub\LifeCuff2_Release\LifeCuff_V2_BootloaderIAR\EWARM\LifeCuff_V2_Bootloader\Obj\Drivers\STM32F7xx_HAL_Driver\stm32f7xx_hal_adc_ex.o
#        C:\Users\adino\OneDrive\Documents\GitHub\LifeCuff2_Release\LifeCuff_V2_BootloaderIAR\EWARM\LifeCuff_V2_Bootloader\Obj\Drivers\STM32F7xx_HAL_Driver\stm32f7xx_hal_cortex.o
#        C:\Users\adino\OneDrive\Documents\GitHub\LifeCuff2_Release\LifeCuff_V2_BootloaderIAR\EWARM\LifeCuff_V2_Bootloader\Obj\Drivers\STM32F7xx_HAL_Driver\stm32f7xx_hal_dma.o
#        C:\Users\adino\OneDrive\Documents\GitHub\LifeCuff2_Release\LifeCuff_V2_BootloaderIAR\EWARM\LifeCuff_V2_Bootloader\Obj\Drivers\STM32F7xx_HAL_Driver\stm32f7xx_hal_dma_ex.o
#        C:\Users\adino\OneDrive\Documents\GitHub\LifeCuff2_Release\LifeCuff_V2_BootloaderIAR\EWARM\LifeCuff_V2_Bootloader\Obj\Drivers\STM32F7xx_HAL_Driver\stm32f7xx_hal_exti.o
#        C:\Users\adino\OneDrive\Documents\GitHub\LifeCuff2_Release\LifeCuff_V2_BootloaderIAR\EWARM\LifeCuff_V2_Bootloader\Obj\Drivers\STM32F7xx_HAL_Driver\stm32f7xx_hal_flash.o
#        C:\Users\adino\OneDrive\Documents\GitHub\LifeCuff2_Release\LifeCuff_V2_BootloaderIAR\EWARM\LifeCuff_V2_Bootloader\Obj\Drivers\STM32F7xx_HAL_Driver\stm32f7xx_hal_flash_ex.o
#        C:\Users\adino\OneDrive\Documents\GitHub\LifeCuff2_Release\LifeCuff_V2_BootloaderIAR\EWARM\LifeCuff_V2_Bootloader\Obj\Drivers\STM32F7xx_HAL_Driver\stm32f7xx_hal_gpio.o
#        C:\Users\adino\OneDrive\Documents\GitHub\LifeCuff2_Release\LifeCuff_V2_BootloaderIAR\EWARM\LifeCuff_V2_Bootloader\Obj\Drivers\STM32F7xx_HAL_Driver\stm32f7xx_hal_i2c.o
#        C:\Users\adino\OneDrive\Documents\GitHub\LifeCuff2_Release\LifeCuff_V2_BootloaderIAR\EWARM\LifeCuff_V2_Bootloader\Obj\Drivers\STM32F7xx_HAL_Driver\stm32f7xx_hal_i2c_ex.o
#        C:\Users\adino\OneDrive\Documents\GitHub\LifeCuff2_Release\LifeCuff_V2_BootloaderIAR\EWARM\LifeCuff_V2_Bootloader\Obj\Application\User\stm32f7xx_hal_msp.o
#        C:\Users\adino\OneDrive\Documents\GitHub\LifeCuff2_Release\LifeCuff_V2_BootloaderIAR\EWARM\LifeCuff_V2_Bootloader\Obj\Drivers\STM32F7xx_HAL_Driver\stm32f7xx_hal_pwr.o
#        C:\Users\adino\OneDrive\Documents\GitHub\LifeCuff2_Release\LifeCuff_V2_BootloaderIAR\EWARM\LifeCuff_V2_Bootloader\Obj\Drivers\STM32F7xx_HAL_Driver\stm32f7xx_hal_pwr_ex.o
#        C:\Users\adino\OneDrive\Documents\GitHub\LifeCuff2_Release\LifeCuff_V2_BootloaderIAR\EWARM\LifeCuff_V2_Bootloader\Obj\Drivers\STM32F7xx_HAL_Driver\stm32f7xx_hal_rcc.o
#        C:\Users\adino\OneDrive\Documents\GitHub\LifeCuff2_Release\LifeCuff_V2_BootloaderIAR\EWARM\LifeCuff_V2_Bootloader\Obj\Drivers\STM32F7xx_HAL_Driver\stm32f7xx_hal_rcc_ex.o
#        C:\Users\adino\OneDrive\Documents\GitHub\LifeCuff2_Release\LifeCuff_V2_BootloaderIAR\EWARM\LifeCuff_V2_Bootloader\Obj\Drivers\STM32F7xx_HAL_Driver\stm32f7xx_hal_rtc.o
#        C:\Users\adino\OneDrive\Documents\GitHub\LifeCuff2_Release\LifeCuff_V2_BootloaderIAR\EWARM\LifeCuff_V2_Bootloader\Obj\Drivers\STM32F7xx_HAL_Driver\stm32f7xx_hal_rtc_ex.o
#        C:\Users\adino\OneDrive\Documents\GitHub\LifeCuff2_Release\LifeCuff_V2_BootloaderIAR\EWARM\LifeCuff_V2_Bootloader\Obj\Drivers\STM32F7xx_HAL_Driver\stm32f7xx_hal_spi.o
#        C:\Users\adino\OneDrive\Documents\GitHub\LifeCuff2_Release\LifeCuff_V2_BootloaderIAR\EWARM\LifeCuff_V2_Bootloader\Obj\Drivers\STM32F7xx_HAL_Driver\stm32f7xx_hal_spi_ex.o
#        C:\Users\adino\OneDrive\Documents\GitHub\LifeCuff2_Release\LifeCuff_V2_BootloaderIAR\EWARM\LifeCuff_V2_Bootloader\Obj\Drivers\STM32F7xx_HAL_Driver\stm32f7xx_hal_tim.o
#        C:\Users\adino\OneDrive\Documents\GitHub\LifeCuff2_Release\LifeCuff_V2_BootloaderIAR\EWARM\LifeCuff_V2_Bootloader\Obj\Drivers\STM32F7xx_HAL_Driver\stm32f7xx_hal_tim_ex.o
#        C:\Users\adino\OneDrive\Documents\GitHub\LifeCuff2_Release\LifeCuff_V2_BootloaderIAR\EWARM\LifeCuff_V2_Bootloader\Obj\Application\User\stm32f7xx_hal_timebase_tim.o
#        C:\Users\adino\OneDrive\Documents\GitHub\LifeCuff2_Release\LifeCuff_V2_BootloaderIAR\EWARM\LifeCuff_V2_Bootloader\Obj\Drivers\STM32F7xx_HAL_Driver\stm32f7xx_hal_uart.o
#        C:\Users\adino\OneDrive\Documents\GitHub\LifeCuff2_Release\LifeCuff_V2_BootloaderIAR\EWARM\LifeCuff_V2_Bootloader\Obj\Drivers\STM32F7xx_HAL_Driver\stm32f7xx_hal_uart_ex.o
#        C:\Users\adino\OneDrive\Documents\GitHub\LifeCuff2_Release\LifeCuff_V2_BootloaderIAR\EWARM\LifeCuff_V2_Bootloader\Obj\Application\User\stm32f7xx_it.o
#        C:\Users\adino\OneDrive\Documents\GitHub\LifeCuff2_Release\LifeCuff_V2_BootloaderIAR\EWARM\LifeCuff_V2_Bootloader\Obj\Drivers\CMSIS\system_stm32f7xx.o
#        --no_out_extension -o
#        C:\Users\adino\OneDrive\Documents\GitHub\LifeCuff2_Release\LifeCuff_V2_BootloaderIAR\EWARM\LifeCuff_V2_Bootloader\Exe\LifeCuff_V2_Bootloader.out
#        --redirect _Printf=_PrintfFullNoMb --redirect _Scanf=_ScanfFullNoMb
#        --map
#        C:\Users\adino\OneDrive\Documents\GitHub\LifeCuff2_Release\LifeCuff_V2_BootloaderIAR\EWARM\LifeCuff_V2_Bootloader\List\LifeCuff_V2_Bootloader.map
#        --config
#        C:\Users\adino\OneDrive\Documents\GitHub\LifeCuff2_Release\LifeCuff_V2_BootloaderIAR\EWARM/stm32f722xx_flash.icf
#        --semihosting --entry __iar_program_start --vfe --text_out locale)
#
###############################################################################

*******************************************************************************
*** RUNTIME MODEL ATTRIBUTES
***

CppFlavor       = *
__SystemLibrary = DLib
__dlib_version  = 6


*******************************************************************************
*** HEAP SELECTION
***

The basic heap was selected because no calls to memory allocation
functions were found in the application outside of system library
functions, and there are calls to deallocation functions in the
application.


*******************************************************************************
*** PLACEMENT SUMMARY
***

"A0":  place at address 0x800'0000 { ro section .intvec };
"P1":  place in [from 0x800'0000 to 0x807'ffff] { ro };
define block CSTACK with size = 1K, alignment = 8 { };
define block HEAP with size = 512, alignment = 8 { };
"P2":  place in [from 0x2000'0000 to 0x2003'ffff] {
          rw, block CSTACK, block HEAP };
initialize by copy { rw };

  Section            Kind         Address    Size  Object
  -------            ----         -------    ----  ------
"A0":                                       0x1e0
  .intvec            ro code   0x800'0000   0x1e0  startup_stm32f722xx.o [1]
                             - 0x800'01e0   0x1e0

"P1":                                      0x8bc0
  .text              ro code   0x800'01e0   0xf32  xprintffull_nomb.o [6]
  .text              ro code   0x800'1112    0x2a  copy_init3.o [8]
  .text              ro code   0x800'113c    0x16  strchr.o [8]
  .text              ro code   0x800'1152     0xa  xsprout.o [6]
  .text              ro code   0x800'115c    0x40  xfail_s.o [6]
  .text              ro code   0x800'119c    0x36  strlen.o [8]
  .rodata            const     0x800'11d2     0x2  xlocale_c.o [6]
  .text              ro code   0x800'11d4    0x58  memchr.o [8]
  .text              ro code   0x800'122c    0xa6  ABImemcpy.o [8]
  .rodata            const     0x800'12d2     0x1  xlocale_c.o [6]
  .text              ro code   0x800'12d4    0x70  frexp.o [7]
  .text              ro code   0x800'1344    0x34  DblCmpLe.o [7]
  .text              ro code   0x800'1378    0x34  DblCmpGe.o [7]
  .text              ro code   0x800'13ac   0x13a  ldexp.o [7]
  .text              ro code   0x800'14e8    0x36  DblToS32.o [7]
  .text              ro code   0x800'1520    0x22  S32ToDbl.o [7]
  .text              ro code   0x800'1544   0x24e  DblAddSub.o [7]
  .text              ro code   0x800'1794   0x246  DblDiv.o [7]
  .text              ro code   0x800'19dc    0x22  DblToU32.o [7]
  .text              ro code   0x800'1a00    0x1c  U32ToDbl.o [7]
  .text              ro code   0x800'1a1c   0x1aa  DblMul.o [7]
  .text              ro code   0x800'1bc8     0x8  xlocale_c.o [6]
  .text              ro code   0x800'1bd0   0x230  I64DivMod.o [8]
  .text              ro code   0x800'1e00     0x6  abort.o [6]
  .text              ro code   0x800'1e08     0x2  I64DivZer.o [8]
  .text              ro code   0x800'1e0c    0x14  exit.o [9]
  .text              ro code   0x800'1e20   0xdc0  BootloaderCommands.o [5]
  .text              ro code   0x800'2be0   0x2ac  stm32f7xx_hal_gpio.o [4]
  .text              ro code   0x800'2e8c   0xc00  main.o [2]
  .text              ro code   0x800'3a8c   0xbb8  stm32f7xx_hal_uart.o [4]
  .text              ro code   0x800'4644    0x66  ABImemset.o [8]
  .text              ro code   0x800'46ac    0x40  sprintf.o [6]
  .text              ro code   0x800'46ec   0x2d4  stm32f7xx_hal_flash.o [4]
  .text              ro code   0x800'49c0   0x464  stm32f7xx_hal_flash_ex.o [4]
  .text              ro code   0x800'4e24    0x74  Crc32.o [5]
  .text              ro code   0x800'4e98     0xa  GpioDriver.o [5]
  .text              ro code   0x800'4ea4    0x16  stm32f7xx_hal.o [4]
  .text              ro code   0x800'4ebc    0x28  stm32f7xx_hal.o [4]
  .text              ro code   0x800'4ee4    0x80  DriverUtilities.o [5]
  .text              ro code   0x800'4f64   0x1a8  LcdDriver.o [5]
  .text              ro code   0x800'510c    0x14  stm32f7xx_hal_pwr.o [4]
  .text              ro code   0x800'5120   0x780  stm32f7xx_hal_rcc.o [4]
  .text              ro code   0x800'58a0    0x84  stm32f7xx_hal_pwr_ex.o [4]
  .text              ro code   0x800'5924   0x588  stm32f7xx_hal_rcc_ex.o [4]
  .text              ro code   0x800'5eac   0x3a8  stm32f7xx_hal_adc.o [4]
  .text              ro code   0x800'6254   0x440  stm32f7xx_hal_i2c.o [4]
  .text              ro code   0x800'6694    0xc6  stm32f7xx_hal_i2c_ex.o [4]
  .text              ro code   0x800'675c   0x142  stm32f7xx_hal_rtc.o [4]
  .text              ro code   0x800'68a0    0xa8  stm32f7xx_hal_rtc_ex.o [4]
  .text              ro code   0x800'6948   0x104  stm32f7xx_hal_spi.o [4]
  .text              ro code   0x800'6a4c   0x7cc  stm32f7xx_hal_tim.o [4]
  .text              ro code   0x800'7218    0xc4  stm32f7xx_hal_tim_ex.o [4]
  .text              ro code   0x800'72dc   0x740  stm32f7xx_hal_msp.o [2]
  .text              ro code   0x800'7a1c   0x114  stm32f7xx_hal_cortex.o [4]
  .text              ro code   0x800'7b30    0x18  stm32f7xx_hal.o [4]
  .text              ro code   0x800'7b48     0xc  stm32f7xx_hal.o [4]
  .text              ro code   0x800'7b54   0x550  stm32f7xx_hal_dma.o [4]
  .text              ro code   0x800'80a4     0x2  stm32f7xx_hal_uart.o [4]
  .text              ro code   0x800'80a6     0x2  stm32f7xx_hal_uart.o [4]
  .text              ro code   0x800'80a8     0x2  stm32f7xx_hal_uart.o [4]
  .text              ro code   0x800'80aa     0x2  stm32f7xx_hal_uart.o [4]
  .text              ro code   0x800'80ac    0x98  stm32f7xx_hal_timebase_tim.o [2]
  .text              ro code   0x800'8144     0x2  stm32f7xx_hal_tim.o [4]
  .text              ro code   0x800'8146     0x2  stm32f7xx_hal_tim.o [4]
  .text              ro code   0x800'8148     0x2  stm32f7xx_hal_tim.o [4]
  .text              ro code   0x800'814a     0x2  stm32f7xx_hal_tim_ex.o [4]
  .text              ro code   0x800'814c     0x2  stm32f7xx_hal_tim_ex.o [4]
  .text              ro code   0x800'814e     0x2  stm32f7xx_hal_tim.o [4]
  .text              ro code   0x800'8150     0x2  stm32f7xx_hal_tim_ex.o [4]
  .rodata            const     0x800'8154   0x190  BootloaderCommands.o [5]
  .text              ro code   0x800'82e4    0x70  stm32f7xx_it.o [2]
  .rodata            const     0x800'8354    0x58  BootloaderCommands.o [5]
  .rodata            const     0x800'83ac    0x4c  BootloaderCommands.o [5]
  .rodata            const     0x800'83f8    0x44  BootloaderCommands.o [5]
  Initializer bytes  const     0x800'843c    0x44  <for P2-1>
  .rodata            const     0x800'8480    0x38  main.o [2]
  .rodata            const     0x800'84b8    0x38  main.o [2]
  .text              ro code   0x800'84f0    0x38  zero_init3.o [8]
  .rodata            const     0x800'8528    0x30  main.o [2]
  .rodata            const     0x800'8558    0x2c  BootloaderCommands.o [5]
  .rodata            const     0x800'8584    0x2c  BootloaderCommands.o [5]
  .rodata            const     0x800'85b0    0x2c  BootloaderCommands.o [5]
  .rodata            const     0x800'85dc    0x2c  BootloaderCommands.o [5]
  .rodata            const     0x800'8608    0x2c  BootloaderCommands.o [5]
  .rodata            const     0x800'8634    0x2c  BootloaderCommands.o [5]
  .rodata            const     0x800'8660    0x2c  BootloaderCommands.o [5]
  .rodata            const     0x800'868c    0x2c  BootloaderCommands.o [5]
  .rodata            const     0x800'86b8    0x2c  BootloaderCommands.o [5]
  .rodata            const     0x800'86e4    0x2c  BootloaderCommands.o [5]
  .rodata            const     0x800'8710    0x2c  BootloaderCommands.o [5]
  .rodata            const     0x800'873c    0x28  BootloaderCommands.o [5]
  .rodata            const     0x800'8764    0x28  BootloaderCommands.o [5]
  .rodata            const     0x800'878c    0x28  BootloaderCommands.o [5]
  .rodata            const     0x800'87b4    0x28  BootloaderCommands.o [5]
  .rodata            const     0x800'87dc    0x28  BootloaderCommands.o [5]
  .rodata            const     0x800'8804    0x28  BootloaderCommands.o [5]
  .rodata            const     0x800'882c    0x28  BootloaderCommands.o [5]
  .text              ro code   0x800'8854    0x28  data_init.o [8]
  .rodata            const     0x800'887c    0x24  BootloaderCommands.o [5]
  .rodata            const     0x800'88a0    0x24  BootloaderCommands.o [5]
  .rodata            const     0x800'88c4    0x24  BootloaderCommands.o [5]
  .rodata            const     0x800'88e8    0x24  BootloaderCommands.o [5]
  .rodata            const     0x800'890c    0x24  BootloaderCommands.o [5]
  .rodata            const     0x800'8930    0x24  BootloaderCommands.o [5]
  .rodata            const     0x800'8954    0x24  BootloaderCommands.o [5]
  .rodata            const     0x800'8978    0x24  BootloaderCommands.o [5]
  .rodata            const     0x800'899c    0x24  BootloaderCommands.o [5]
  .rodata            const     0x800'89c0    0x24  BootloaderCommands.o [5]
  .text              ro code   0x800'89e4    0x22  fpinit_M.o [7]
  .iar.init_table    const     0x800'8a08    0x24  - Linker created -
  .rodata            const     0x800'8a2c    0x20  BootloaderCommands.o [5]
  .rodata            const     0x800'8a4c    0x20  BootloaderCommands.o [5]
  .rodata            const     0x800'8a6c    0x20  BootloaderCommands.o [5]
  .rodata            const     0x800'8a8c    0x20  BootloaderCommands.o [5]
  .rodata            const     0x800'8aac    0x20  BootloaderCommands.o [5]
  .rodata            const     0x800'8acc    0x20  BootloaderCommands.o [5]
  .rodata            const     0x800'8aec    0x20  BootloaderCommands.o [5]
  .rodata            const     0x800'8b0c    0x20  BootloaderCommands.o [5]
  .text              ro code   0x800'8b2c    0x1e  cmain.o [8]
  .text              ro code   0x800'8b4a     0x4  low_level_init.o [6]
  .text              ro code   0x800'8b4e     0x4  exit.o [6]
  .text              ro code   0x800'8b54     0xa  cexit.o [8]
  .rodata            const     0x800'8b60    0x1c  BootloaderCommands.o [5]
  .text              ro code   0x800'8b7c    0x1c  cstartup_M.o [8]
  .rodata            const     0x800'8b98    0x14  BootloaderCommands.o [5]
  .rodata            const     0x800'8bac    0x14  BootloaderCommands.o [5]
  .rodata            const     0x800'8bc0    0x14  BootloaderCommands.o [5]
  .rodata            const     0x800'8bd4    0x14  main.o [2]
  .text              ro code   0x800'8be8    0x14  system_stm32f7xx.o [3]
  .rodata            const     0x800'8bfc    0x10  BootloaderCommands.o [5]
  .rodata            const     0x800'8c0c    0x10  BootloaderCommands.o [5]
  .rodata            const     0x800'8c1c    0x10  system_stm32f7xx.o [3]
  .text              ro code   0x800'8c2c    0x10  startup_stm32f722xx.o [1]
  .rodata            const     0x800'8c3c     0xc  BootloaderCommands.o [5]
  .rodata            const     0x800'8c48     0xc  BootloaderCommands.o [5]
  .rodata            const     0x800'8c54     0xc  BootloaderCommands.o [5]
  .rodata            const     0x800'8c60     0x8  stm32f7xx_hal_dma.o [4]
  .rodata            const     0x800'8c68     0x8  system_stm32f7xx.o [3]
  .text              ro code   0x800'8c70     0x4  startup_stm32f722xx.o [1]
  .text              ro code   0x800'8c74     0x4  startup_stm32f722xx.o [1]
  .text              ro code   0x800'8c78     0x4  startup_stm32f722xx.o [1]
  .text              ro code   0x800'8c7c     0x4  startup_stm32f722xx.o [1]
  .text              ro code   0x800'8c80     0x4  startup_stm32f722xx.o [1]
  .text              ro code   0x800'8c84     0x4  startup_stm32f722xx.o [1]
  .text              ro code   0x800'8c88     0x4  startup_stm32f722xx.o [1]
  .text              ro code   0x800'8c8c     0x4  startup_stm32f722xx.o [1]
  .text              ro code   0x800'8c90     0x4  startup_stm32f722xx.o [1]
  .text              ro code   0x800'8c94     0x4  startup_stm32f722xx.o [1]
  .text              ro code   0x800'8c98     0x4  startup_stm32f722xx.o [1]
  .text              ro code   0x800'8c9c     0x4  startup_stm32f722xx.o [1]
  .text              ro code   0x800'8ca0     0x4  startup_stm32f722xx.o [1]
  .text              ro code   0x800'8ca4     0x4  startup_stm32f722xx.o [1]
  .text              ro code   0x800'8ca8     0x4  startup_stm32f722xx.o [1]
  .text              ro code   0x800'8cac     0x4  startup_stm32f722xx.o [1]
  .text              ro code   0x800'8cb0     0x4  startup_stm32f722xx.o [1]
  .text              ro code   0x800'8cb4     0x4  startup_stm32f722xx.o [1]
  .text              ro code   0x800'8cb8     0x4  startup_stm32f722xx.o [1]
  .text              ro code   0x800'8cbc     0x4  startup_stm32f722xx.o [1]
  .text              ro code   0x800'8cc0     0x4  startup_stm32f722xx.o [1]
  .text              ro code   0x800'8cc4     0x4  startup_stm32f722xx.o [1]
  .text              ro code   0x800'8cc8     0x4  startup_stm32f722xx.o [1]
  .text              ro code   0x800'8ccc     0x4  startup_stm32f722xx.o [1]
  .text              ro code   0x800'8cd0     0x4  startup_stm32f722xx.o [1]
  .text              ro code   0x800'8cd4     0x4  startup_stm32f722xx.o [1]
  .text              ro code   0x800'8cd8     0x4  startup_stm32f722xx.o [1]
  .text              ro code   0x800'8cdc     0x4  startup_stm32f722xx.o [1]
  .text              ro code   0x800'8ce0     0x4  startup_stm32f722xx.o [1]
  .text              ro code   0x800'8ce4     0x4  startup_stm32f722xx.o [1]
  .text              ro code   0x800'8ce8     0x4  startup_stm32f722xx.o [1]
  .text              ro code   0x800'8cec     0x4  startup_stm32f722xx.o [1]
  .text              ro code   0x800'8cf0     0x4  startup_stm32f722xx.o [1]
  .text              ro code   0x800'8cf4     0x4  startup_stm32f722xx.o [1]
  .text              ro code   0x800'8cf8     0x4  startup_stm32f722xx.o [1]
  .text              ro code   0x800'8cfc     0x4  startup_stm32f722xx.o [1]
  .text              ro code   0x800'8d00     0x4  startup_stm32f722xx.o [1]
  .text              ro code   0x800'8d04     0x4  startup_stm32f722xx.o [1]
  .text              ro code   0x800'8d08     0x4  startup_stm32f722xx.o [1]
  .text              ro code   0x800'8d0c     0x4  startup_stm32f722xx.o [1]
  .text              ro code   0x800'8d10     0x4  startup_stm32f722xx.o [1]
  .text              ro code   0x800'8d14     0x4  startup_stm32f722xx.o [1]
  .text              ro code   0x800'8d18     0x4  startup_stm32f722xx.o [1]
  .text              ro code   0x800'8d1c     0x4  startup_stm32f722xx.o [1]
  .text              ro code   0x800'8d20     0x4  startup_stm32f722xx.o [1]
  .text              ro code   0x800'8d24     0x4  startup_stm32f722xx.o [1]
  .text              ro code   0x800'8d28     0x4  startup_stm32f722xx.o [1]
  .text              ro code   0x800'8d2c     0x4  startup_stm32f722xx.o [1]
  .text              ro code   0x800'8d30     0x4  startup_stm32f722xx.o [1]
  .text              ro code   0x800'8d34     0x4  startup_stm32f722xx.o [1]
  .text              ro code   0x800'8d38     0x4  startup_stm32f722xx.o [1]
  .text              ro code   0x800'8d3c     0x4  startup_stm32f722xx.o [1]
  .text              ro code   0x800'8d40     0x4  startup_stm32f722xx.o [1]
  .text              ro code   0x800'8d44     0x4  startup_stm32f722xx.o [1]
  .text              ro code   0x800'8d48     0x4  startup_stm32f722xx.o [1]
  .text              ro code   0x800'8d4c     0x4  startup_stm32f722xx.o [1]
  .text              ro code   0x800'8d50     0x4  startup_stm32f722xx.o [1]
  .text              ro code   0x800'8d54     0x4  startup_stm32f722xx.o [1]
  .text              ro code   0x800'8d58     0x4  startup_stm32f722xx.o [1]
  .text              ro code   0x800'8d5c     0x4  startup_stm32f722xx.o [1]
  .text              ro code   0x800'8d60     0x4  startup_stm32f722xx.o [1]
  .text              ro code   0x800'8d64     0x4  startup_stm32f722xx.o [1]
  .text              ro code   0x800'8d68     0x4  startup_stm32f722xx.o [1]
  .text              ro code   0x800'8d6c     0x4  startup_stm32f722xx.o [1]
  .text              ro code   0x800'8d70     0x4  startup_stm32f722xx.o [1]
  .text              ro code   0x800'8d74     0x4  startup_stm32f722xx.o [1]
  .text              ro code   0x800'8d78     0x4  startup_stm32f722xx.o [1]
  .text              ro code   0x800'8d7c     0x4  startup_stm32f722xx.o [1]
  .text              ro code   0x800'8d80     0x4  startup_stm32f722xx.o [1]
  .text              ro code   0x800'8d84     0x4  startup_stm32f722xx.o [1]
  .text              ro code   0x800'8d88     0x4  startup_stm32f722xx.o [1]
  .text              ro code   0x800'8d8c     0x4  startup_stm32f722xx.o [1]
  .text              ro code   0x800'8d90     0x4  startup_stm32f722xx.o [1]
  .text              ro code   0x800'8d94     0x4  startup_stm32f722xx.o [1]
  .text              ro code   0x800'8d98     0x4  startup_stm32f722xx.o [1]
  .text              ro code   0x800'8d9c     0x4  startup_stm32f722xx.o [1]
  .rodata            const     0x800'8da0     0x0  zero_init3.o [8]
  .rodata            const     0x800'8da0     0x0  copy_init3.o [8]
                             - 0x800'8da0  0x8bc0

"P2", part 1 of 3:                           0x44
  P2-1                        0x2000'0000    0x41  <Init block>
    .data            inited   0x2000'0000     0x4  stm32f7xx_hal.o [4]
    .data            inited   0x2000'0004     0x4  system_stm32f7xx.o [3]
    .data            inited   0x2000'0008    0x38  xlocale_c.o [6]
    .data            inited   0x2000'0040     0x1  stm32f7xx_hal.o [4]
                            - 0x2000'0041    0x41

"P2", part 2 of 3:                          0xa78
  .bss               zero     0x2000'0044   0x400  Crc32.o [5]
  .bss               zero     0x2000'0444    0x84  main.o [2]
  .bss               zero     0x2000'04c8    0x84  main.o [2]
  .bss               zero     0x2000'054c    0x84  main.o [2]
  .bss               zero     0x2000'05d0    0x64  BootloaderCommands.o [5]
  .bss               zero     0x2000'0634    0x64  main.o [2]
  .bss               zero     0x2000'0698    0x64  main.o [2]
  .bss               zero     0x2000'06fc    0x60  main.o [2]
  .bss               zero     0x2000'075c    0x60  main.o [2]
  .bss               zero     0x2000'07bc    0x4c  main.o [2]
  .bss               zero     0x2000'0808    0x4c  main.o [2]
  .bss               zero     0x2000'0854    0x4c  main.o [2]
  .bss               zero     0x2000'08a0    0x4c  main.o [2]
  .bss               zero     0x2000'08ec    0x4c  main.o [2]
  .bss               zero     0x2000'0938    0x4c  main.o [2]
  .bss               zero     0x2000'0984    0x4c  stm32f7xx_hal_timebase_tim.o [2]
  .bss               zero     0x2000'09d0    0x48  main.o [2]
  .bss               zero     0x2000'0a18    0x48  main.o [2]
  .bss               zero     0x2000'0a60    0x20  main.o [2]
  .bss               zero     0x2000'0a80    0x1c  stm32f7xx_hal_flash.o [4]
  .bss               zero     0x2000'0a9c    0x10  main.o [2]
  .bss               zero     0x2000'0aac     0x4  BootloaderCommands.o [5]
  .bss               zero     0x2000'0ab0     0x4  stm32f7xx_hal.o [4]
  .bss               zero     0x2000'0ab4     0x4  xfail_s.o [6]
  .bss               zero     0x2000'0ab8     0x1  main.o [2]
                            - 0x2000'0ab9   0xa75

"P2", part 3 of 3:                          0x400
  CSTACK                      0x2000'0ac0   0x400  <Block>
    CSTACK           uninit   0x2000'0ac0   0x400  <Block tail>
                            - 0x2000'0ec0   0x400

Unused ranges:

         From           To      Size
         ----           --      ----
   0x800'8da0   0x807'ffff  0x7'7260
  0x2000'0abc  0x2000'0abf       0x4
  0x2000'0ec0  0x2003'ffff  0x3'f140


*******************************************************************************
*** INIT TABLE
***

          Address      Size
          -------      ----
Zero (__iar_zero_init3)
    1 destination range, total size 0xa75:
          0x2000'0044  0xa75

Copy (__iar_copy_init3)
    1 source range, total size 0x44 (104% of destination):
           0x800'843c   0x44
    1 destination range, total size 0x41:
          0x2000'0000   0x41



*******************************************************************************
*** MODULE SUMMARY
***

    Module                        ro code  ro data  rw data
    ------                        -------  -------  -------
command line/config:
    -------------------------------------------------------
    Total:

C:\Users\adino\OneDrive\Documents\GitHub\LifeCuff2_Release\LifeCuff_V2_BootloaderIAR\EWARM\LifeCuff_V2_Bootloader\Obj\Application\EWARM: [1]
    startup_stm32f722xx.o             800
    -------------------------------------------------------
    Total:                            800

C:\Users\adino\OneDrive\Documents\GitHub\LifeCuff2_Release\LifeCuff_V2_BootloaderIAR\EWARM\LifeCuff_V2_Bootloader\Obj\Application\User: [2]
    main.o                          3'072      180    1'437
    stm32f7xx_hal_msp.o             1'856
    stm32f7xx_hal_timebase_tim.o      152                76
    stm32f7xx_it.o                    112
    -------------------------------------------------------
    Total:                          5'192      180    1'513

C:\Users\adino\OneDrive\Documents\GitHub\LifeCuff2_Release\LifeCuff_V2_BootloaderIAR\EWARM\LifeCuff_V2_Bootloader\Obj\Drivers\CMSIS: [3]
    system_stm32f7xx.o                 20       28        4
    -------------------------------------------------------
    Total:                             20       28        4

C:\Users\adino\OneDrive\Documents\GitHub\LifeCuff2_Release\LifeCuff_V2_BootloaderIAR\EWARM\LifeCuff_V2_Bootloader\Obj\Drivers\STM32F7xx_HAL_Driver: [4]
    stm32f7xx_hal.o                    98        5        9
    stm32f7xx_hal_adc.o               936
    stm32f7xx_hal_cortex.o            276
    stm32f7xx_hal_dma.o             1'360        8
    stm32f7xx_hal_flash.o             724                28
    stm32f7xx_hal_flash_ex.o        1'124
    stm32f7xx_hal_gpio.o              684
    stm32f7xx_hal_i2c.o             1'088
    stm32f7xx_hal_i2c_ex.o            198
    stm32f7xx_hal_pwr.o                20
    stm32f7xx_hal_pwr_ex.o            132
    stm32f7xx_hal_rcc.o             1'920
    stm32f7xx_hal_rcc_ex.o          1'416
    stm32f7xx_hal_rtc.o               322
    stm32f7xx_hal_rtc_ex.o            168
    stm32f7xx_hal_spi.o               260
    stm32f7xx_hal_tim.o             2'004
    stm32f7xx_hal_tim_ex.o            202
    stm32f7xx_hal_uart.o            3'008
    -------------------------------------------------------
    Total:                         15'940       13       37

C:\Users\adino\OneDrive\Documents\GitHub\LifeCuff2_Release\LifeCuff_V2_BootloaderIAR\EWARM\LifeCuff_V2_Bootloader\Obj\LifeCuff_Drivers: [5]
    BootloaderCommands.o            3'520    2'168      104
    Crc32.o                           116             1'024
    DriverUtilities.o                 128
    GpioDriver.o                       10
    LcdDriver.o                       424
    -------------------------------------------------------
    Total:                          4'198    2'168    1'128

dl7M_tlf.a: [6]
    abort.o                             6
    exit.o                              4
    low_level_init.o                    4
    sprintf.o                          64
    xfail_s.o                          64                 4
    xlocale_c.o                         8       59       56
    xprintffull_nomb.o              3'890
    xsprout.o                          10
    -------------------------------------------------------
    Total:                          4'050       59       60

m7M_tls.a: [7]
    DblAddSub.o                       590
    DblCmpGe.o                         52
    DblCmpLe.o                         52
    DblDiv.o                          582
    DblMul.o                          426
    DblToS32.o                         54
    DblToU32.o                         34
    S32ToDbl.o                         34
    U32ToDbl.o                         28
    fpinit_M.o                         34
    frexp.o                           112
    ldexp.o                           314
    -------------------------------------------------------
    Total:                          2'312

rt7M_tl.a: [8]
    ABImemcpy.o                       166
    ABImemset.o                       102
    I64DivMod.o                       560
    I64DivZer.o                         2
    cexit.o                            10
    cmain.o                            30
    copy_init3.o                       42
    cstartup_M.o                       28
    data_init.o                        40
    memchr.o                           88
    strchr.o                           22
    strlen.o                           54
    zero_init3.o                       56
    -------------------------------------------------------
    Total:                          1'200

shb_l.a: [9]
    exit.o                             20
    -------------------------------------------------------
    Total:                             20

    Gaps                               31        6
    Linker created                              39    1'024
-----------------------------------------------------------
    Grand Total:                   33'763    2'493    3'766


*******************************************************************************
*** ENTRY LIST
***

Entry                       Address   Size  Type      Object
-----                       -------   ----  ----      ------
.iar.init_table$$Base    0x800'8a08          --   Gb  - Linker created -
.iar.init_table$$Limit   0x800'8a2c          --   Gb  - Linker created -
?main                    0x800'8b2d         Code  Gb  cmain.o [8]
ADC_Init                 0x800'60d9  0x160  Code  Lc  stm32f7xx_hal_adc.o [4]
AHBPrescTable            0x800'8c1c   0x10  Data  Gb  system_stm32f7xx.o [3]
APBPrescTable            0x800'8c68    0x8  Data  Gb  system_stm32f7xx.o [3]
BLOutput                0x2000'05d0   0x64  Data  Gb  BootloaderCommands.o [5]
Bootloader_FlashErase    0x800'21c9   0xae  Code  Gb  BootloaderCommands.o [5]
Bootloader_GetMcuChipId
                         0x800'2a9d    0xc  Code  Gb  BootloaderCommands.o [5]
Bootloader_GetOptionBytesRDPLevel
                         0x800'267f   0x1a  Code  Gb  BootloaderCommands.o [5]
Bootloader_GetOptionBytesWRPLevel
                         0x800'25e5   0x1a  Code  Gb  BootloaderCommands.o [5]
Bootloader_GetSetOptionBytesRDPLevel
                         0x800'271b   0x6a  Code  Gb  BootloaderCommands.o [5]
Bootloader_GetVersion    0x800'2ac1    0x4  Code  Gb  BootloaderCommands.o [5]
Bootloader_JumpToUserApp
                         0x800'2adf   0x2e  Code  Gb  BootloaderCommands.o [5]
Bootloader_MemWrite      0x800'2961   0x44  Code  Gb  BootloaderCommands.o [5]
Bootloader_SendNack      0x800'2ac5   0x1a  Code  Gb  BootloaderCommands.o [5]
Bootloader_VerifyCrc     0x800'2a79   0x24  Code  Gb  BootloaderCommands.o [5]
BusFault_Handler         0x800'82eb    0x2  Code  Gb  stm32f7xx_it.o [2]
CSTACK$$Base            0x2000'0ac0          --   Gb  - Linker created -
CSTACK$$Limit           0x2000'0ec0          --   Gb  - Linker created -
DMA1_Stream5_IRQHandler
                         0x800'8301    0xa  Code  Gb  stm32f7xx_it.o [2]
DMA2_Stream2_IRQHandler
                         0x800'8333    0xa  Code  Gb  stm32f7xx_it.o [2]
DMA_CalcBaseAndBitshift
                         0x800'7fc9   0x30  Code  Lc  stm32f7xx_hal_dma.o [4]
DMA_CalcBaseAndBitshift::flagBitshiftOffset
                         0x800'8c60    0x8  Data  Lc  stm32f7xx_hal_dma.o [4]
DMA_CheckFifoParam       0x800'8009   0x9c  Code  Lc  stm32f7xx_hal_dma.o [4]
DMA_SetConfig            0x800'7f9b   0x2e  Code  Lc  stm32f7xx_hal_dma.o [4]
DWT_Delay_Init           0x800'4ee5   0x4c  Code  Gb  DriverUtilities.o [5]
DWT_Delay_us             0x800'4f31   0x24  Code  Gb  DriverUtilities.o [5]
DebugMon_Handler         0x800'82f1    0x2  Code  Gb  stm32f7xx_it.o [2]
EXTI1_IRQHandler         0x800'82f7    0xa  Code  Gb  stm32f7xx_it.o [2]
Error_Handler            0x800'3a89    0x4  Code  Gb  main.o [2]
FLASH_Erase_Sector       0x800'4bbd   0x76  Code  Gb  stm32f7xx_hal_flash_ex.o [4]
FLASH_MassErase          0x800'4b8b   0x32  Code  Lc  stm32f7xx_hal_flash_ex.o [4]
FLASH_OB_BOR_LevelConfig
                         0x800'4d0b   0x18  Code  Lc  stm32f7xx_hal_flash_ex.o [4]
FLASH_OB_BootAddressConfig
                         0x800'4d23   0x3c  Code  Lc  stm32f7xx_hal_flash_ex.o [4]
FLASH_OB_DisableWRP      0x800'4cc9   0x24  Code  Lc  stm32f7xx_hal_flash_ex.o [4]
FLASH_OB_EnableWRP       0x800'4ca5   0x24  Code  Lc  stm32f7xx_hal_flash_ex.o [4]
FLASH_OB_GetBOR          0x800'4d83    0xa  Code  Lc  stm32f7xx_hal_flash_ex.o [4]
FLASH_OB_GetBootAddress
                         0x800'4d8d   0x18  Code  Lc  stm32f7xx_hal_flash_ex.o [4]
FLASH_OB_GetPCROP        0x800'4df5    0xa  Code  Lc  stm32f7xx_hal_flash_ex.o [4]
FLASH_OB_GetPCROPRDP     0x800'4dff    0xa  Code  Lc  stm32f7xx_hal_flash_ex.o [4]
FLASH_OB_GetRDP          0x800'4d5f   0x24  Code  Lc  stm32f7xx_hal_flash_ex.o [4]
FLASH_OB_GetUser         0x800'4c9b    0xa  Code  Lc  stm32f7xx_hal_flash_ex.o [4]
FLASH_OB_GetWRP          0x800'4c33    0xa  Code  Lc  stm32f7xx_hal_flash_ex.o [4]
FLASH_OB_PCROP_Config    0x800'4da5   0x28  Code  Lc  stm32f7xx_hal_flash_ex.o [4]
FLASH_OB_PCROP_RDP_Config
                         0x800'4dcd   0x28  Code  Lc  stm32f7xx_hal_flash_ex.o [4]
FLASH_OB_RDP_LevelConfig
                         0x800'4ced   0x1e  Code  Lc  stm32f7xx_hal_flash_ex.o [4]
FLASH_OB_UserConfig      0x800'4c3d   0x5e  Code  Lc  stm32f7xx_hal_flash_ex.o [4]
FLASH_Program_Byte       0x800'48ed   0x28  Code  Lc  stm32f7xx_hal_flash.o [4]
FLASH_Program_DoubleWord
                         0x800'485d   0x38  Code  Lc  stm32f7xx_hal_flash.o [4]
FLASH_Program_HalfWord   0x800'48c1   0x2c  Code  Lc  stm32f7xx_hal_flash.o [4]
FLASH_Program_Word       0x800'4895   0x2c  Code  Lc  stm32f7xx_hal_flash.o [4]
FLASH_SetErrorCode       0x800'4915   0x82  Code  Lc  stm32f7xx_hal_flash.o [4]
FLASH_WaitForLastOperation
                         0x800'4807   0x56  Code  Gb  stm32f7xx_hal_flash.o [4]
FlashProtectionConfig    0x800'248b   0xda  Code  Gb  BootloaderCommands.o [5]
Get_BleHandle            0x800'3961    0x4  Code  Gb  main.o [2]
Get_DebugHandle          0x800'395d    0x4  Code  Gb  main.o [2]
Gpio_StartSwitch         0x800'1e95   0x1c  Code  Gb  BootloaderCommands.o [5]
HAL_ADC_ConfigChannel    0x800'5f13  0x1c6  Code  Gb  stm32f7xx_hal_adc.o [4]
HAL_ADC_Init             0x800'5ead   0x66  Code  Gb  stm32f7xx_hal_adc.o [4]
HAL_ADC_MspInit          0x800'731f  0x104  Code  Gb  stm32f7xx_hal_msp.o [2]
HAL_DMA_Abort            0x800'7ccf   0x9c  Code  Gb  stm32f7xx_hal_dma.o [4]
HAL_DMA_Abort_IT         0x800'7d6b   0x28  Code  Gb  stm32f7xx_hal_dma.o [4]
HAL_DMA_IRQHandler       0x800'7d93  0x208  Code  Gb  stm32f7xx_hal_dma.o [4]
HAL_DMA_Init             0x800'7b55   0xe2  Code  Gb  stm32f7xx_hal_dma.o [4]
HAL_DMA_Start_IT         0x800'7c37   0x98  Code  Gb  stm32f7xx_hal_dma.o [4]
HAL_Delay                0x800'4ebd   0x28  Code  Gb  stm32f7xx_hal.o [4]
HAL_FLASHEx_Erase        0x800'49c1   0xb6  Code  Gb  stm32f7xx_hal_flash_ex.o [4]
HAL_FLASHEx_OBGetConfig
                         0x800'4b4d   0x3e  Code  Gb  stm32f7xx_hal_flash_ex.o [4]
HAL_FLASHEx_OBProgram    0x800'4a77   0xd6  Code  Gb  stm32f7xx_hal_flash_ex.o [4]
HAL_FLASH_Lock           0x800'47b3   0x10  Code  Gb  stm32f7xx_hal_flash.o [4]
HAL_FLASH_OB_Launch      0x800'47ef   0x18  Code  Gb  stm32f7xx_hal_flash.o [4]
HAL_FLASH_OB_Lock        0x800'47df   0x10  Code  Gb  stm32f7xx_hal_flash.o [4]
HAL_FLASH_OB_Unlock      0x800'47c3   0x1c  Code  Gb  stm32f7xx_hal_flash.o [4]
HAL_FLASH_Program        0x800'46ed   0xa0  Code  Gb  stm32f7xx_hal_flash.o [4]
HAL_FLASH_Unlock         0x800'478d   0x26  Code  Gb  stm32f7xx_hal_flash.o [4]
HAL_GPIO_EXTI_Callback   0x800'4e99    0xa  Code  Gb  GpioDriver.o [5]
HAL_GPIO_EXTI_IRQHandler
                         0x800'2e2d   0x22  Code  Gb  stm32f7xx_hal_gpio.o [4]
HAL_GPIO_Init            0x800'2be1  0x21c  Code  Gb  stm32f7xx_hal_gpio.o [4]
HAL_GPIO_ReadPin         0x800'2dfd   0x16  Code  Gb  stm32f7xx_hal_gpio.o [4]
HAL_GPIO_WritePin        0x800'2e13   0x1a  Code  Gb  stm32f7xx_hal_gpio.o [4]
HAL_GetTick              0x800'7b49    0xc  Code  Gb  stm32f7xx_hal.o [4]
HAL_I2CEx_ConfigAnalogFilter
                         0x800'6695   0x64  Code  Gb  stm32f7xx_hal_i2c_ex.o [4]
HAL_I2CEx_ConfigDigitalFilter
                         0x800'66f9   0x62  Code  Gb  stm32f7xx_hal_i2c_ex.o [4]
HAL_I2C_Init             0x800'6255   0xcc  Code  Gb  stm32f7xx_hal_i2c.o [4]
HAL_I2C_Master_Transmit
                         0x800'6321  0x17e  Code  Gb  stm32f7xx_hal_i2c.o [4]
HAL_I2C_MspInit          0x800'7423  0x188  Code  Gb  stm32f7xx_hal_msp.o [2]
HAL_IncTick              0x800'7b31   0x18  Code  Gb  stm32f7xx_hal.o [4]
HAL_Init                 0x800'4ea5   0x16  Code  Gb  stm32f7xx_hal.o [4]
HAL_InitTick             0x800'80ad   0x86  Code  Gb  stm32f7xx_hal_timebase_tim.o [2]
HAL_MspInit              0x800'72dd   0x42  Code  Gb  stm32f7xx_hal_msp.o [2]
HAL_NVIC_EnableIRQ       0x800'7b0f    0xe  Code  Gb  stm32f7xx_hal_cortex.o [4]
HAL_NVIC_SetPriority     0x800'7ae5   0x2a  Code  Gb  stm32f7xx_hal_cortex.o [4]
HAL_NVIC_SetPriorityGrouping
                         0x800'7ad9    0xc  Code  Gb  stm32f7xx_hal_cortex.o [4]
HAL_PWREx_EnableOverDrive
                         0x800'58a1   0x78  Code  Gb  stm32f7xx_hal_pwr_ex.o [4]
HAL_PWR_EnableBkUpAccess
                         0x800'510d    0xe  Code  Gb  stm32f7xx_hal_pwr.o [4]
HAL_RCCEx_PeriphCLKConfig
                         0x800'5925  0x560  Code  Gb  stm32f7xx_hal_rcc_ex.o [4]
HAL_RCC_ClockConfig      0x800'55f3  0x184  Code  Gb  stm32f7xx_hal_rcc.o [4]
HAL_RCC_GetClockConfig   0x800'582d   0x3a  Code  Gb  stm32f7xx_hal_rcc.o [4]
HAL_RCC_GetHCLKFreq      0x800'57fb    0x6  Code  Gb  stm32f7xx_hal_rcc.o [4]
HAL_RCC_GetPCLK1Freq     0x800'5801   0x16  Code  Gb  stm32f7xx_hal_rcc.o [4]
HAL_RCC_GetPCLK2Freq     0x800'5817   0x16  Code  Gb  stm32f7xx_hal_rcc.o [4]
HAL_RCC_GetSysClockFreq
                         0x800'5777   0x84  Code  Gb  stm32f7xx_hal_rcc.o [4]
HAL_RCC_OscConfig        0x800'5121  0x4d2  Code  Gb  stm32f7xx_hal_rcc.o [4]
HAL_RTCEx_SetWakeUpTimer
                         0x800'68a1   0xa8  Code  Gb  stm32f7xx_hal_rtc_ex.o [4]
HAL_RTC_Init             0x800'675d   0xcc  Code  Gb  stm32f7xx_hal_rtc.o [4]
HAL_RTC_MspInit          0x800'75ab   0x1c  Code  Gb  stm32f7xx_hal_msp.o [2]
HAL_RTC_WaitForSynchro   0x800'6829   0x36  Code  Gb  stm32f7xx_hal_rtc.o [4]
HAL_SPI_Init             0x800'6949  0x104  Code  Gb  stm32f7xx_hal_spi.o [4]
HAL_SPI_MspInit          0x800'75c7   0xe4  Code  Gb  stm32f7xx_hal_msp.o [2]
HAL_TIMEx_Break2Callback
                         0x800'814d    0x2  Code  Gb  stm32f7xx_hal_tim_ex.o [4]
HAL_TIMEx_BreakCallback
                         0x800'814b    0x2  Code  Gb  stm32f7xx_hal_tim_ex.o [4]
HAL_TIMEx_CommutCallback
                         0x800'8151    0x2  Code  Gb  stm32f7xx_hal_tim_ex.o [4]
HAL_TIMEx_MasterConfigSynchronization
                         0x800'7219   0xa6  Code  Gb  stm32f7xx_hal_tim_ex.o [4]
HAL_TIM_Base_Init        0x800'6a4d   0x7a  Code  Gb  stm32f7xx_hal_tim.o [4]
HAL_TIM_Base_MspInit     0x800'7701   0x3e  Code  Gb  stm32f7xx_hal_msp.o [2]
HAL_TIM_Base_Start_IT    0x800'6ac7   0xa2  Code  Gb  stm32f7xx_hal_tim.o [4]
HAL_TIM_IC_CaptureCallback
                         0x800'8145    0x2  Code  Gb  stm32f7xx_hal_tim.o [4]
HAL_TIM_IRQHandler       0x800'6c03  0x194  Code  Gb  stm32f7xx_hal_tim.o [4]
HAL_TIM_MspPostInit      0x800'773f   0x98  Code  Gb  stm32f7xx_hal_msp.o [2]
HAL_TIM_OC_DelayElapsedCallback
                         0x800'8147    0x2  Code  Gb  stm32f7xx_hal_tim.o [4]
HAL_TIM_PWM_ConfigChannel
                         0x800'6d97  0x15a  Code  Gb  stm32f7xx_hal_tim.o [4]
HAL_TIM_PWM_Init         0x800'6b89   0x7a  Code  Gb  stm32f7xx_hal_tim.o [4]
HAL_TIM_PWM_MspInit      0x800'76ab   0x56  Code  Gb  stm32f7xx_hal_msp.o [2]
HAL_TIM_PWM_PulseFinishedCallback
                         0x800'8149    0x2  Code  Gb  stm32f7xx_hal_tim.o [4]
HAL_TIM_PeriodElapsedCallback
                         0x800'39bd   0x12  Code  Gb  main.o [2]
HAL_TIM_TriggerCallback
                         0x800'814f    0x2  Code  Gb  stm32f7xx_hal_tim.o [4]
HAL_UARTEx_RxEventCallback
                         0x800'80a7    0x2  Code  Gb  stm32f7xx_hal_uart.o [4]
HAL_UART_ErrorCallback   0x800'80a5    0x2  Code  Gb  stm32f7xx_hal_uart.o [4]
HAL_UART_IRQHandler      0x800'3c3d  0x292  Code  Gb  stm32f7xx_hal_uart.o [4]
HAL_UART_Init            0x800'3a8d   0x7a  Code  Gb  stm32f7xx_hal_uart.o [4]
HAL_UART_MspInit         0x800'77d7  0x1e4  Code  Gb  stm32f7xx_hal_msp.o [2]
HAL_UART_Receive_DMA     0x800'3be3   0x5a  Code  Gb  stm32f7xx_hal_uart.o [4]
HAL_UART_RxCpltCallback
                         0x800'3965   0x36  Code  Gb  main.o [2]
HAL_UART_RxHalfCpltCallback
                         0x800'80a9    0x2  Code  Gb  stm32f7xx_hal_uart.o [4]
HAL_UART_Transmit        0x800'3b07   0xdc  Code  Gb  stm32f7xx_hal_uart.o [4]
HAL_UART_TxCpltCallback
                         0x800'80ab    0x2  Code  Gb  stm32f7xx_hal_uart.o [4]
HardFault_Handler        0x800'82e7    0x2  Code  Gb  stm32f7xx_it.o [2]
I2C_Flush_TXDR           0x800'64a9   0x24  Code  Lc  stm32f7xx_hal_i2c.o [4]
I2C_IsAcknowledgeFailed
                         0x800'65d5   0x8a  Code  Lc  stm32f7xx_hal_i2c.o [4]
I2C_TransferConfig       0x800'665f   0x2e  Code  Lc  stm32f7xx_hal_i2c.o [4]
I2C_WaitOnFlagUntilTimeout
                         0x800'64cd   0x5e  Code  Lc  stm32f7xx_hal_i2c.o [4]
I2C_WaitOnSTOPFlagUntilTimeout
                         0x800'6583   0x52  Code  Lc  stm32f7xx_hal_i2c.o [4]
I2C_WaitOnTXISFlagUntilTimeout
                         0x800'652b   0x58  Code  Lc  stm32f7xx_hal_i2c.o [4]
LF_LCD_Control           0x800'50ed   0x20  Code  Gb  LcdDriver.o [5]
LF__ST7036__EnableBacklight
                         0x800'50cb    0xe  Code  Gb  LcdDriver.o [5]
LF__ST7036__InitLCD      0x800'4fc7   0x8e  Code  Gb  LcdDriver.o [5]
LF__ST7036__LCDcommand   0x800'5083   0x10  Code  Gb  LcdDriver.o [5]
LF__ST7036__LCDwrite     0x800'5093   0x38  Code  Gb  LcdDriver.o [5]
LF__ST7036__SetCursor    0x800'4f65   0x30  Code  Gb  LcdDriver.o [5]
MX_ADC1_Init             0x800'3063   0xa8  Code  Lc  main.o [2]
MX_ADC2_Init             0x800'310b   0xa8  Code  Lc  main.o [2]
MX_DMA_Init              0x800'3781   0x54  Code  Lc  main.o [2]
MX_GPIO_Init             0x800'37d5  0x188  Code  Lc  main.o [2]
MX_I2C1_Init             0x800'31b9   0x84  Code  Lc  main.o [2]
MX_I2C2_Init             0x800'323d   0x84  Code  Lc  main.o [2]
MX_I2C3_Init             0x800'32c1   0x84  Code  Lc  main.o [2]
MX_RTC_Init              0x800'3345   0x62  Code  Lc  main.o [2]
MX_SPI2_Init             0x800'33a7   0x8c  Code  Lc  main.o [2]
MX_SPI3_Init             0x800'3433   0x8c  Code  Lc  main.o [2]
MX_TIM2_Init             0x800'34bf   0xaa  Code  Lc  main.o [2]
MX_TIM3_Init             0x800'3569   0xaa  Code  Lc  main.o [2]
MX_TIM7_Init             0x800'3613   0x66  Code  Lc  main.o [2]
MX_USART1_UART_Init      0x800'3679   0x66  Code  Lc  main.o [2]
MX_USART2_UART_Init      0x800'36df   0x52  Code  Lc  main.o [2]
MX_USART6_UART_Init      0x800'3731   0x50  Code  Lc  main.o [2]
MemManage_Handler        0x800'82e9    0x2  Code  Gb  stm32f7xx_it.o [2]
NMI_Handler              0x800'82e5    0x2  Code  Gb  stm32f7xx_it.o [2]
NVIC_EncodePriority      0x800'7a97   0x42  Code  Lc  stm32f7xx_hal_cortex.o [4]
Parse_Incoming_Command   0x800'1eb1   0x48  Code  Gb  BootloaderCommands.o [5]
PendSV_Handler           0x800'82f3    0x2  Code  Gb  stm32f7xx_it.o [2]
RTC_EnterInitMode        0x800'6865   0x3a  Code  Gb  stm32f7xx_hal_rtc.o [4]
Region$$Table$$Base      0x800'8a08          --   Gb  - Linker created -
Region$$Table$$Limit     0x800'8a2c          --   Gb  - Linker created -
SVC_Handler              0x800'82ef    0x2  Code  Gb  stm32f7xx_it.o [2]
SysTick_Handler          0x800'82f5    0x2  Code  Gb  stm32f7xx_it.o [2]
SystemClock_Config       0x800'2f5b  0x108  Code  Gb  main.o [2]
SystemCoreClock         0x2000'0004    0x4  Data  Gb  system_stm32f7xx.o [3]
SystemInit               0x800'8be9    0xe  Code  Gb  system_stm32f7xx.o [3]
TIM6_DAC_IRQHandler      0x800'831f    0xa  Code  Gb  stm32f7xx_it.o [2]
TIM7_IRQHandler          0x800'8329    0xa  Code  Gb  stm32f7xx_it.o [2]
TIM_Base_SetConfig       0x800'6ef1   0xca  Code  Gb  stm32f7xx_hal_tim.o [4]
TIM_OC1_SetConfig        0x800'6fbb   0x70  Code  Lc  stm32f7xx_hal_tim.o [4]
TIM_OC2_SetConfig        0x800'702b   0x70  Code  Gb  stm32f7xx_hal_tim.o [4]
TIM_OC3_SetConfig        0x800'709b   0x6e  Code  Lc  stm32f7xx_hal_tim.o [4]
TIM_OC4_SetConfig        0x800'7109   0x4c  Code  Lc  stm32f7xx_hal_tim.o [4]
TIM_OC5_SetConfig        0x800'7157   0x46  Code  Lc  stm32f7xx_hal_tim.o [4]
TIM_OC6_SetConfig        0x800'719d   0x48  Code  Lc  stm32f7xx_hal_tim.o [4]
UART_AdvFeatureConfig    0x800'4279   0xda  Code  Gb  stm32f7xx_hal_uart.o [4]
UART_CheckIdleState      0x800'4353   0x4a  Code  Gb  stm32f7xx_hal_uart.o [4]
UART_DMAAbortOnError     0x800'4609   0x1a  Code  Lc  stm32f7xx_hal_uart.o [4]
UART_DMAError            0x800'45b9   0x4e  Code  Lc  stm32f7xx_hal_uart.o [4]
UART_DMAReceiveCplt      0x800'452d   0x68  Code  Lc  stm32f7xx_hal_uart.o [4]
UART_DMARxHalfCplt       0x800'4595   0x24  Code  Lc  stm32f7xx_hal_uart.o [4]
UART_EndRxTransfer       0x800'44f5   0x38  Code  Lc  stm32f7xx_hal_uart.o [4]
UART_EndTransmit_IT      0x800'4623   0x20  Code  Lc  stm32f7xx_hal_uart.o [4]
UART_EndTxTransfer       0x800'44e3   0x12  Code  Lc  stm32f7xx_hal_uart.o [4]
UART_SetConfig           0x800'3ecf  0x378  Code  Gb  stm32f7xx_hal_uart.o [4]
UART_Start_Receive_DMA   0x800'444f   0x94  Code  Gb  stm32f7xx_hal_uart.o [4]
UART_WaitOnFlagUntilTimeout
                         0x800'439d   0xb2  Code  Gb  stm32f7xx_hal_uart.o [4]
USART1_IRQHandler        0x800'830b    0xa  Code  Gb  stm32f7xx_it.o [2]
USART2_IRQHandler        0x800'8315    0xa  Code  Gb  stm32f7xx_it.o [2]
UsageFault_Handler       0x800'82ed    0x2  Code  Gb  stm32f7xx_it.o [2]
UserAppProgrammed        0x800'399b   0x22  Code  Gb  main.o [2]
Write_Instruction        0x800'4f95   0x32  Code  Lc  LcdDriver.o [5]
_LitobFullNoMb           0x800'0f19  0x10c  Code  Lc  xprintffull_nomb.o [6]
_Locale_lconv           0x2000'0008   0x38  Data  Lc  xlocale_c.o [6]
_PrintfFullNoMb          0x800'01e1  0xd08  Code  Gb  xprintffull_nomb.o [6]
_PutcharFullNoMb         0x800'107d   0x20  Code  Lc  xprintffull_nomb.o [6]
_PutcharsFullNoMb        0x800'109d   0x2e  Code  Lc  xprintffull_nomb.o [6]
_SProut                  0x800'1153    0xa  Code  Gb  xsprout.o [6]
__NVIC_EnableIRQ         0x800'7a4b   0x20  Code  Lc  stm32f7xx_hal_cortex.o [4]
__NVIC_GetPriorityGrouping
                         0x800'7a3f    0xc  Code  Lc  stm32f7xx_hal_cortex.o [4]
__NVIC_SetPriority       0x800'7a6b   0x2c  Code  Lc  stm32f7xx_hal_cortex.o [4]
__NVIC_SetPriorityGrouping
                         0x800'7a1d   0x22  Code  Lc  stm32f7xx_hal_cortex.o [4]
__NVIC_SystemReset       0x800'1e21   0x22  Code  Lc  BootloaderCommands.o [5]
__aeabi_cdcmple          0x800'1345         Code  Gb  DblCmpLe.o [7]
__aeabi_cdrcmple         0x800'1379         Code  Gb  DblCmpGe.o [7]
__aeabi_d2iz             0x800'14e9         Code  Gb  DblToS32.o [7]
__aeabi_d2uiz            0x800'19dd         Code  Gb  DblToU32.o [7]
__aeabi_ddiv             0x800'1795         Code  Gb  DblDiv.o [7]
__aeabi_dmul             0x800'1a1d         Code  Gb  DblMul.o [7]
__aeabi_dsub             0x800'16b1         Code  Gb  DblAddSub.o [7]
__aeabi_i2d              0x800'1521         Code  Gb  S32ToDbl.o [7]
__aeabi_ldiv0            0x800'1e09         Code  Gb  I64DivZer.o [8]
__aeabi_memcpy           0x800'122d         Code  Gb  ABImemcpy.o [8]
__aeabi_memcpy4          0x800'124d         Code  Gb  ABImemcpy.o [8]
__aeabi_memcpy8          0x800'124d         Code  Gb  ABImemcpy.o [8]
__aeabi_memset           0x800'4645         Code  Gb  ABImemset.o [8]
__aeabi_ui2d             0x800'1a01         Code  Gb  U32ToDbl.o [7]
__aeabi_uldivmod         0x800'1bd1         Code  Gb  I64DivMod.o [8]
__cmain                  0x800'8b2d         Code  Gb  cmain.o [8]
__exit                   0x800'1e0d   0x14  Code  Gb  exit.o [9]
__iar_Fail_s             0x800'115d   0x1c  Code  Gb  xfail_s.o [6]
__iar_Memchr             0x800'11d5         Code  Gb  memchr.o [8]
__iar_Memset             0x800'4645         Code  Gb  ABImemset.o [8]
__iar_Memset_word        0x800'464d         Code  Gb  ABImemset.o [8]
__iar_Strchr             0x800'113d         Code  Gb  strchr.o [8]
__iar_copy_init3         0x800'1113   0x2a  Code  Gb  copy_init3.o [8]
__iar_data_init3         0x800'8855   0x28  Code  Gb  data_init.o [8]
__iar_frexp              0x800'12e1         Code  Gb  frexp.o [7]
__iar_frexpl             0x800'12e1         Code  Gb  frexp.o [7]
__iar_init_vfp           0x800'89e5         Code  Gb  fpinit_M.o [7]
__iar_ldexp64            0x800'13ad         Code  Gb  ldexp.o [7]
__iar_program_start      0x800'8b7d         Code  Gb  cstartup_M.o [8]
__iar_scalbln64          0x800'13ad         Code  Gb  ldexp.o [7]
__iar_scalbn64           0x800'13ad         Code  Gb  ldexp.o [7]
__iar_softfp___iar_frexp64
                         0x800'12d5         Code  Gb  frexp.o [7]
__iar_softfp_frexp       0x800'12d5         Code  Gb  frexp.o [7]
__iar_softfp_frexpl      0x800'12d5         Code  Gb  frexp.o [7]
__iar_zero_init3         0x800'84f1   0x38  Code  Gb  zero_init3.o [8]
__low_level_init         0x800'8b4b    0x4  Code  Gb  low_level_init.o [6]
__vector_table           0x800'0000         Data  Gb  startup_stm32f722xx.o [1]
_call_main               0x800'8b39         Code  Gb  cmain.o [8]
_exit                    0x800'8b55         Code  Gb  cexit.o [8]
abort                    0x800'1e01    0x6  Code  Gb  abort.o [6]
bootloaderVerifyAddress
                         0x800'1e69   0x2c  Code  Lc  BootloaderCommands.o [5]
commandDisableReadWriteProtect
                         0x800'23ff   0x8c  Code  Gb  BootloaderCommands.o [5]
commandDisableSectorProtect
                         0x800'2379   0x86  Code  Gb  BootloaderCommands.o [5]
commandFlashErase        0x800'210b   0xbe  Code  Gb  BootloaderCommands.o [5]
commandFlashLock         0x800'287f   0x10  Code  Gb  BootloaderCommands.o [5]
commandFlashUnlock       0x800'288f   0x10  Code  Gb  BootloaderCommands.o [5]
commandFwVersion         0x800'1f45   0x8c  Code  Gb  BootloaderCommands.o [5]
commandGetChipId         0x800'1fd1   0x80  Code  Gb  BootloaderCommands.o [5]
commandGoToAddress       0x800'2051   0xba  Code  Gb  BootloaderCommands.o [5]
commandMemRead           0x800'29bb   0xb6  Code  Gb  BootloaderCommands.o [5]
commandMemWrite          0x800'2785   0xfa  Code  Gb  BootloaderCommands.o [5]
commandMemWriteFile      0x800'289f   0xb6  Code  Gb  BootloaderCommands.o [5]
commandReadRDPProtection
                         0x800'25ff   0x80  Code  Gb  BootloaderCommands.o [5]
commandReadWRPProtection
                         0x800'2565   0x80  Code  Gb  BootloaderCommands.o [5]
commandReset             0x800'1f33   0x12  Code  Gb  BootloaderCommands.o [5]
commandSetMultipleWRPProtection
                         0x800'231b   0x5e  Code  Gb  BootloaderCommands.o [5]
commandSetRDPProtection
                         0x800'2699   0x82  Code  Gb  BootloaderCommands.o [5]
commandSetWRPProtection
                         0x800'2277   0xa4  Code  Gb  BootloaderCommands.o [5]
crc32                    0x800'4e47   0x48  Code  Gb  Crc32.o [5]
crc32::table            0x2000'0044  0x400  Data  Lc  Crc32.o [5]
crc32_for_byte           0x800'4e25   0x22  Code  Gb  Crc32.o [5]
createCrc                0x800'1e43   0x26  Code  Lc  BootloaderCommands.o [5]
dataRdy                 0x2000'0ab8    0x1  Data  Lc  main.o [2]
debugBuffer             0x2000'0a9c   0x10  Data  Lc  main.o [2]
execute_mem_read         0x800'29a5   0x16  Code  Gb  BootloaderCommands.o [5]
exit                     0x800'8b4f    0x4  Code  Gb  exit.o [6]
gCommandTable            0x800'8154  0x190  Data  Gb  BootloaderCommands.o [5]
hadc1                   0x2000'09d0   0x48  Data  Gb  main.o [2]
hadc2                   0x2000'0a18   0x48  Data  Gb  main.o [2]
hdma_usart1_rx          0x2000'06fc   0x60  Data  Gb  main.o [2]
hdma_usart2_rx          0x2000'075c   0x60  Data  Gb  main.o [2]
hi2c1                   0x2000'07bc   0x4c  Data  Gb  main.o [2]
hi2c2                   0x2000'0808   0x4c  Data  Gb  main.o [2]
hi2c3                   0x2000'0854   0x4c  Data  Gb  main.o [2]
hrtc                    0x2000'0a60   0x20  Data  Gb  main.o [2]
hspi2                   0x2000'0634   0x64  Data  Gb  main.o [2]
hspi3                   0x2000'0698   0x64  Data  Gb  main.o [2]
htim2                   0x2000'08a0   0x4c  Data  Gb  main.o [2]
htim3                   0x2000'08ec   0x4c  Data  Gb  main.o [2]
htim6                   0x2000'0984   0x4c  Data  Gb  stm32f7xx_hal_timebase_tim.o [2]
htim7                   0x2000'0938   0x4c  Data  Gb  main.o [2]
huart1                  0x2000'0444   0x84  Data  Gb  main.o [2]
huart2                  0x2000'04c8   0x84  Data  Gb  main.o [2]
huart6                  0x2000'054c   0x84  Data  Gb  main.o [2]
ldexp                    0x800'13ad         Code  Gb  ldexp.o [7]
ldexpl                   0x800'13ad         Code  Gb  ldexp.o [7]
lets_jump               0x2000'0aac    0x4  Data  Gb  BootloaderCommands.o [5]
localeconv               0x800'1bc9    0x4  Code  Gb  xlocale_c.o [6]
main                     0x800'2e8d   0xce  Code  Gb  main.o [2]
memchr                   0x800'11d5         Code  Gb  memchr.o [8]
pFlash                  0x2000'0a80   0x1c  Data  Gb  stm32f7xx_hal_flash.o [4]
scalbln                  0x800'13ad         Code  Gb  ldexp.o [7]
scalblnl                 0x800'13ad         Code  Gb  ldexp.o [7]
scalbn                   0x800'13ad         Code  Gb  ldexp.o [7]
scalbnl                  0x800'13ad         Code  Gb  ldexp.o [7]
scale                    0x800'1025   0x46  Code  Lc  xprintffull_nomb.o [6]
sec_hand                0x2000'0ab4    0x4  Data  Lc  xfail_s.o [6]
send_i2c                 0x800'5055   0x2e  Code  Gb  LcdDriver.o [5]
serialPutStr             0x800'1ef9   0x3a  Code  Gb  BootloaderCommands.o [5]
sprintf                  0x800'46ad   0x40  Code  Gb  sprintf.o [6]
strchr                   0x800'113d         Code  Gb  strchr.o [8]
strlen                   0x800'119d         Code  Gb  strlen.o [8]
uwTick                  0x2000'0ab0    0x4  Data  Gb  stm32f7xx_hal.o [4]
uwTickFreq              0x2000'0040    0x1  Data  Gb  stm32f7xx_hal.o [4]
uwTickPrio              0x2000'0000    0x4  Data  Gb  stm32f7xx_hal.o [4]


[1] = C:\Users\adino\OneDrive\Documents\GitHub\LifeCuff2_Release\LifeCuff_V2_BootloaderIAR\EWARM\LifeCuff_V2_Bootloader\Obj\Application\EWARM
[2] = C:\Users\adino\OneDrive\Documents\GitHub\LifeCuff2_Release\LifeCuff_V2_BootloaderIAR\EWARM\LifeCuff_V2_Bootloader\Obj\Application\User
[3] = C:\Users\adino\OneDrive\Documents\GitHub\LifeCuff2_Release\LifeCuff_V2_BootloaderIAR\EWARM\LifeCuff_V2_Bootloader\Obj\Drivers\CMSIS
[4] = C:\Users\adino\OneDrive\Documents\GitHub\LifeCuff2_Release\LifeCuff_V2_BootloaderIAR\EWARM\LifeCuff_V2_Bootloader\Obj\Drivers\STM32F7xx_HAL_Driver
[5] = C:\Users\adino\OneDrive\Documents\GitHub\LifeCuff2_Release\LifeCuff_V2_BootloaderIAR\EWARM\LifeCuff_V2_Bootloader\Obj\LifeCuff_Drivers
[6] = dl7M_tlf.a
[7] = m7M_tls.a
[8] = rt7M_tl.a
[9] = shb_l.a

  33'763 bytes of readonly  code memory
   2'493 bytes of readonly  data memory
   3'766 bytes of readwrite data memory

Errors: none
Warnings: none
